:020000021000EC
:10F00000000001205DAC020085AC020087AC02006C
:10F0100089AC02008BAC02008DAC02000000000045
:10F020000000000000000000000000008FAC0200A3
:10F0300091AC02000000000093AC020095AC02000D
:10F04000411C020097AC020097AC020085540200FC
:10F0500097AC020079A302009D270200893E0200BE
:10F0600097AC020097AC020097AC020097AC02008C
:10F0700097AC0200B93B020097AC020097AC0200CB
:10F0800097AC02008994020097AC020097AC020092
:10F09000C994020097AC020049AB020097AC020091
:10F0A00097AC020097AC020097AC0200B5A002003A
:10F0B00099390200012E020000000000000000004B
:10F0C00097AC020097AC020097AC020097AC02002C
:10F0D00097AC020097AC020097AC02000000000061
:10F0E0000000000000000000000000000000000020
:10F0F0000000000000000000000000000000000010
:10F1000000000000000000000000000000000000FF
:10F1100000000000000000000000000000000000EF
:10F1200000000000000000000000000000000000DF
:10F1300000000000000000000000000000000000CF
:10F1400000000000000000000000000000000000BF
:10F1500000000000000000000000000000000000AF
:10F16000000000000000000000000000000000009F
:10F17000000000000000000000000000000000008F
:10F18000000000000000000000000000000000007F
:10F19000000000000000000000000000000000006F
:10F1A000000000000000000000000000000000005F
:10F1B000000000000000000000000000000000004F
:10F1C000000000000000000000000000000000003F
:10F1D000000000000000000000000000000000002F
:10F1E000000000000000000000000000000000001F
:10F1F000000000000000000000000000000000000F
:10F2000010B5054C237833B9044B13B10448AFF360
:10F2100000800123237010BD28440020000000005E
:10F2200000060600084B10B51BB108480849AFF3AB
:10F2300000800848036803B910BD074B002BFBD0C2
:10F24000BDE81040184700BF00000000000606009F
:10F250002C4400200444002000000000154B002B2B
:10F2600008BF134B9D46A3F5803A00218B460F46FD
:10F270001348144A121A2FF0B9FC0F4B002B00D080
:10F2800098470E4B002B00D0984700200021040027
:10F290000D000D48002802D00C48AFF300802FF07D
:10F2A00049FC2000290012F04FFB2FF02FFC00BF7B
:10F2B0000000080000000120000000000000000025
:10F2C000284400206492002000000000000000009C
:10F2D00073DF7047184600BF80B400AF034B1B7844
:10F2E0001846BD465DF8047B704700BF1A450020F4
:10F2F00080B485B000AF78600023FB600AE07A68D4
:10F30000FB6813441B78002B01D0012306E0FB6847
:10F310000133FB60FB68052BF1D900231846143735
:10F32000BD465DF8047B704780B483B000AF0346F0
:10F33000FB71FB795A1C084B83FB02135910D3173E
:10F34000C91A0B469B000B44D11ACBB218460C3796
:10F35000BD465DF8047B70476766666680B483B01F
:10F3600000AF78607B68DB7B012B03D17B689A88D8
:10F37000034B1A800C37BD465DF8047B704700BF15
:10F380000C45002080B584B000AF78600D4B0022A2
:10F390001A707B689A880C4B1B889A420ED1012008
:10F3A00000F06CFAF860FB68002B07D0074B1B6875
:10F3B000002B03D0054B1B68F86898471037BD46F3
:10F3C00080BD00BF184500200C45002014450020DA
:10F3D00080B584B000AF78607B681B7A002B00D0CA
:10F3E00014E00C4B1B781846FFF79EFF03461846A7
:10F3F00000F044FAF860FB68002B07D0064B1B684E
:10F40000002B03D0044B1B68F86898471037BD46A3
:10F4100080BD00BF474400201445002080B582B065
:10F4200000AF3B1D184608F027FA7B68002B14BF7D
:10F4300001230023DBB218460837BD4680BD00BF5C
:10F4400080B584B000AF0346FB711C48FFF750FF46
:10F450000346FB73FB79013B032B29D801A252F829
:10F4600023F000BF75F4010087F4010099F4010056
:10F47000A5F40100124B5B78002B04D0FB7B002B22
:10F4800001D0012315E00E4B9B78002B04D0FB7BB1
:10F49000002B01D002230CE0094BDB78002B01D0BC
:10F4A000032306E0064B1B79002B01D0042300E068
:10F4B000002318461037BD4680BD00BF6D440020B4
:10F4C0004844002080B483B000AF78600A4B01222A
:10F4D0001A707B68094A5A607B6801221A707B683F
:10F4E00000229A817B6800225A81002318460C373B
:10F4F000BD465DF8047B7047464400206C44002004
:10F5000080B483B000AF78600C4B02221A707B6825
:10F510000B4A5A607B6801221A700A4BDB689AB268
:10F520007B689A81074B9B689AB27B685A8100235B
:10F5300018460C37BD465DF8047B704746440020F2
:10F540006C4400204844002080B584B000AF78604F
:10F550001A4B1B699AB27B685A81184B5B699AB245
:10F560007B689A81154B1B78002B1FD0144B1B789E
:10F5700083F00103DBB2002B18D0FFF7ADFE03468A
:10F58000002B13D07B6802221A720E4B0422DA7011
:10F590000C48002101F08AFDF860FB68002B01D0C7
:10F5A000FB6807E0084B05221A7002E0064B0322B5
:10F5B0001A70002318461037BD4680BD484400200D
:10F5C00018450020744400204644002080B584B0D3
:10F5D00000AF78601A4B9B699AB27B685A81184BCE
:10F5E000DB699AB27B689A81154B1B78002B1FD080
:10F5F000144B1B7883F00103DBB2002B18D0FFF70C
:10F600006BFE0346002B13D07B6802221A720E4B4E
:10F610000422DA700C48002101F048FDF860FB6814
:10F62000002B01D0FB6807E0084B06221A7002E0AD
:10F63000064B04221A70002318461037BD4680BDC1
:10F64000484400201845002074440020464400200F
:10F6500080B483B000AF0346FB71044AFB7913709A
:10F660000C37BD465DF8047B704700BF684400203E
:10F67000B0B588B000AFF860B9607A603B60FB68F5
:10F68000002B02D07B68002B01D10E23D5E06D4BFF
:10F6900001221A706C4B00221A706C4A7B68144667
:10F6A0001D460FCD0FC495E80F0084E80F00684B8E
:10F6B00000221A70674A3B681360674A3B6B13600D
:10F6C000664B4FF6FF721A806548002107222FF023
:10F6D0008DFA644800213C222FF088FAFB681A78E2
:10F6E000604B1A70FB689A785E4B9A70FB68DA7808
:10F6F0005C4BDA70FB685A785A4B5A70594BFA686F
:10F700001033103292E8030083E80300554BFA6887
:10F710000833083292E8030083E80300514BFA688B
:10F720001833183292E8030083E80300FB685B6A31
:10F73000002B29D04B4B4C4A5A624B4B4B4A9A6098
:10F74000484B5B6AFA68526A12881A80454B5B6ABA
:10F75000FA68526A92889A800023FB610DE0FB6888
:10F760005B6A9A68FB6913441978404AFB69134441
:10F770000A461A70FB690133FB613A4B5B6A9B884E
:10F780001A46FB699A42EAD8FB689B6A002B33D081
:10F79000374B384A9A60334B354A9A62314B9B6AF1
:10F7A000344A9A602F4B9B6AFA68926A92889A80D0
:10F7B0002C4B9B6AFA68926A12881A800023BB61FC
:10F7C0000DE0FB689B6A9A68BB6913441978294A63
:10F7D000BB6913440A461A70BB690133BB61214BF4
:10F7E0009B6A9B881A46BB699A42EAD8FB6893F8E1
:10F7F0002C201C4B83F82C20FB681B6A002B0ED09E
:10F80000184B1D4A1A62174B1B6AFA68126A528813
:10F810005A80144B1B6AFA68126A12881A80FB68B5
:10F820005B68002B03D0FB685B680E4A53600D4891
:10F83000B96801F03BFC78617B6918462037BD460A
:10F84000B0BD00BF4444002047440020484400208D
:10F850006844002010450020144500200C4500207D
:10F860006C44002074440020B0440020BC440020BC
:10F87000DC440020E84400200845002080B588B022
:10F8800000AF0346FB71664B1B7883F00103DBB2CC
:10F89000002B01D00823BFE0624AFB791370FFF709
:10F8A000BDFD0346002B04D05F4B01221A700023DC
:10F8B000B2E05E48002107222FF098F95C4B5B789C
:10F8C000002B03D0574B1B78012B0FD0584B9B7844
:10F8D000002B03D0534B1B78012B07D0544B9B7844
:10F8E000002B12D04F4B1B78022B0ED1514B1B68B3
:10F8F000002B07D0504B01221A704E4B1B6808207A
:10F90000984702E04C4B00221A70FB791846FFF72B
:10F9100097FD03461A46434B1A70464B1B68002B53
:10F920001DD0404B1B78032B03D03E4B1B78042B80
:10F9300015D13F4B1B78002B11D0404B1B7883F027
:10F940000103DBB2002B0AD03D4B00221A703D4B65
:10F9500001221A70374B1B680720984702E0394B89
:10F9600000221A7007F10C031846002110222FF014
:10F970003DF900233B7300233B752A4B1B78042B76
:10F980002CD801A252F823F0D5F901009DF901000D
:10F99000ABF90100B9F90100C7F9010007F10C0347
:10F9A0001846FFF78FFDF86119E007F10C031846C0
:10F9B000FFF7A6FDF86112E007F10C031846FFF708
:10F9C000C3FDF8610BE007F10C031846FFF7FEFDDD
:10F9D000F86104E01C4B00221A7000E000BF114BDC
:10F9E0001B78002B0DD0194B1B7807F10C02104629
:10F9F0001946FFF76DFCF861FB69002B01D0FB692C
:10FA00000AE00C4B1B68002B05D00A4B1B680E4A02
:10FA1000127810469847002318462037BD4680BD0F
:10FA20004444002047440020454400206C4400200A
:10FA30004844002010450020734400201845002051
:10FA40001A45002019450020464400206844002043
:10FA500080B582B000AF78607B681B88112B08D01E
:10FA60001B2B0AD0102B00D00BE07868FFF776FC38
:10FA700007E07868FFF786FC03E07868FFF7A8FCEA
:10FA800000BF0837BD4680BD80B584B000AF786048
:10FA90007B68023B012B19D80E4B1B78002B14D02E
:10FAA0000C4B00221A700C4B1B781846FFF7E6FE31
:10FAB000F860FB68002B08D0084B1B68002B04D0B3
:10FAC000064B1B68F868984701E000E000BF10375C
:10FAD000BD4680BD45440020474400201445002019
:10FAE000A0DF7047184600BFA2DF7047184600BF6E
:10FAF000A3DF7047184600BFA4DF7047184600BF59
:10FB0000A6DF7047184600BF80B483B000AF7860AE
:10FB100039603B689A887B685A820C37BD465DF82D
:10FB2000047B704780B483B000AF786039607B6835
:10FB30004FF6FF725A820C37BD465DF8047B704762
:10FB400080B584B000AF786039607B681B7D002B86
:10FB500024D03B680633FB60FB681A887B685B89AE
:10FB60009A421BD1FB685B89022B17D17B681B680B
:10FB7000002B13D0FB680C33184601F02FFE034610
:10FB8000002B02D000233B7201E001233B727B6813
:10FB90001B6807F108027868114698471037BD4680
:10FBA00080BD00BF80B582B000AF786039607B68EF
:10FBB000002B02D03B68002B00D117E03B681B886C
:10FBC000112B09D0502B0CD0102B00D00EE07868F0
:10FBD0003968FFF799FF09E078683968FFF7A2FFF5
:10FBE00004E078683968FFF7ABFF00BF0837BD460F
:10FBF00080BD00BF80B594B000AF786039607B688D
:10FC00001B7D002B1FD007F128031846002103227B
:10FC10002EF0ECFF97F82830012262F3030387F8F7
:10FC2000283097F82830012262F3071387F828302C
:10FC30003B685B7B87F8293097F82A30012262F312
:10FC4000420387F82A3007F12C03184600211C22B2
:10FC50002EF0CCFF97F82C3043F0020387F82C30BD
:10FC60007B681B7D03F00103DAB297F82C3062F356
:10FC7000041387F82C3000233B630023BB6300236D
:10FC8000FB637B681B7D002B02D007F1280300E09B
:10FC900000233B6400237B640123BB7442F61923D9
:10FCA0003B8207F10C031846002103222EF09EFF31
:10FCB0003B689B7B3B733B68DB7B7B73BB7B01229D
:10FCC00062F34203BB73BB7B6FF3C303BB73BB7BAA
:10FCD0006FF30413BB73BB7B6FF30003BB733B6811
:10FCE0001B7BFB7207F114031846002114222EF02F
:10FCF0007DFF07F110037B6107F10C03BB6101235A
:10FD0000BB830023FB8301233B8407F10B037B624E
:10FD10007B6898887B68063307F12C0107F1140291
:10FD2000FFF7E2FEF864FB6C002B01D0FB6C63E094
:10FD30003B689B68002B5BD00123BB7442F6081321
:10FD40003B8207F10C031846002103222EF04EFFE0
:10FD50003B681B7C3B737B7B6FF303037B737B7B79
:10FD60006FF307137B73BB7B012262F34203BB7308
:10FD7000BB7B6FF3C303BB73BB7B6FF30413BB731A
:10FD8000BB7B6FF30003BB733B689B6807F1080202
:10FD90001046194601F04EFD034687F84B3007F137
:10FDA00014031846002114222EF020FF07F110033F
:10FDB0007B6107F10C03BB6197F84B309BB2BB83AF
:10FDC0000023FB83BB8B3B8407F108037B627B68CA
:10FDD000D9887B680E3307F11402084611461A468B
:10FDE000FFF786FEF864FB6C002B04D0FB6C03E08D
:10FDF0007B680022DA81002318465037BD4680BD5B
:10FE000080B584B000AF786039607B68002B02D089
:10FE10003B68002B01D10E2327E03B681A687B6802
:10FE20001A607B684FF6FF725A823B681A797B68CA
:10FE30001A757B68FF221A740123BB7241F60F0307
:10FE40003B817B68043307F10802012011461A4602
:10FE5000FFF746FEF860FB68002B01D0FB6804E06A
:10FE600078683968FFF7C6FE034618461037BD4666
:10FE700080BD00BF80B58AB000AF78600B46FB70D4
:10FE80007B68002B01D10E2352E000237B627B684C
:10FE90001A7CFB789A424AD007F11C0318460021CD
:10FEA00008222EF0A3FE0123BB830023FB83FB1C4F
:10FEB0003B627B68598A7B68DA8807F11C03084635
:10FEC00011461A46FFF718FE78627B6A002B09D1AB
:10FED000FA787B681A747B685B8A4FF6FF729342EC
:10FEE00023D001E07B6A23E07B681B7D002B1CD0C4
:10FEF00007F10C031846002110222EF077FE7B68D4
:10FF0000DB88BB810123BB73FB8B3B8207F11C03A6
:10FF10007B613B6ABB617B685A8A07F10C03104620
:10FF20001946FFF7EDFD786201E008237B627B6AEA
:10FF300018462837BD4680BD80B483B000AF034665
:10FF4000FB71094997F907305B09FA7902F01F0242
:10FF5000012000FA02F2203341F823200C37BD467D
:10FF60005DF8047B704700BF00E100E080B483B01F
:10FF700000AF0346FB71094997F907305B09FA792D
:10FF800002F01F02012000FA02F2603341F8232040
:10FF90000C37BD465DF8047B704700BF00E100E010
:10FFA00080B400AFBFF34F8F0549054BDB6803F406
:10FFB000E062044B1343CB60BFF34F8F00BFFDE7FC
:10FFC00000ED00E00400FA05A0DF7047184600BF0E
:10FFD000A2DF7047184600BFA6DF7047184600BF73
:10FFE000A8DF7047184600BF62DF7047184600BFA1
:10FFF0003ADF7047184600BF3BDF7047184600BF26
:020000022000DC
:1000000011DF7047184600BF13DF7047184600BF66
:1000100080B582B000AF0F4B1B683B6000237B6054
:1000200011E07B68012202FA03F31A463B68134091
:10003000002B05D07B68DBB25BB21846FFF77CFF74
:100040007B6801337B607B681F2BEAD90837BD468C
:1000500080BD00BF00E100E080B582B000AF0020AD
:100060004FF0FF31FFF7C8FF78607B68002B01D0AD
:100070007B6825E00020B121FFF7BAFF78607B683C
:10008000002B01D07B681BE0FFF7BAFF78607B682C
:10009000002B01D07B6813E04FF010235B691846FA
:1000A000FFF7B2FF78607B68002B01D07B6807E028
:1000B0001620FFF75BFFFFF7ABFFFFF771FF002391
:1000C00018460837BD4680BD80B584B000AF786063
:1000D0007B681B69002B08D000233B737B681B697E
:1000E00007F10C027868114698477B6801221A755F
:1000F0001037BD4680BD00BF80B592B000AF7860BC
:10010000396007F12C0300221A60043300221A60C0
:10011000043300221A60043300221A6004330022E0
:100120001A60043300221A60043300221A60043378
:1001300000233B85002387F82A3007F114030022AF
:100140001A60043300221A60043300221A60043358
:1001500000221A60043300221A60043300233B8219
:100160000023BB7497F82830012262F3030387F859
:10017000283097F82830012262F3071387F82830D7
:1001800097F82930012262F3030387F8293097F8A2
:100190002930012262F3071387F8293097F82A30B3
:1001A000012262F3420387F82A3097F82C3043F09B
:1001B000200387F82C3097F82C3043F0080387F899
:1001C0002C3000233B630023BB630023FB6307F158
:1001D00028033B6400237B647B681B78BB73032389
:1001E000BB813B7C012262F303033B743B7C012215
:1001F00062F307133B747B7C012262F303037B747D
:100200007B7C012262F307137B74BB7C012262F3C7
:100210004203BB74BB7C6FF3C303BB74BB7C43F072
:100220001003BB74BB7C43F00103BB7407F10C03E8
:100230007B6107F11003BB610023BB830023FB83B9
:1002400017233B8400237B627B6858887B680633D6
:1002500007F12C0107F11402FFF7BAFE0346184616
:100260004837BD4680BD00BF90B589B000AF78600B
:100270003960284B07F10804186859689A68DB68E8
:100280000FC47B68002B01D10E233EE03B68002B9E
:1002900001D10E2339E07B684FF6FF729A803B68EC
:1002A0001A687B681A617B6800221A757B680022D5
:1002B0009A730123BB764FF659633B837B68023305
:1002C00007F11802012011461A46FFF77DFEF8617A
:1002D000FB69002B01D0FB6917E07B6807F108027E
:1002E00010461946FFF780FEF861FB69002B01D02C
:1002F000FB690AE078683968FFF7FEFEF861FB6980
:10030000002B01D0FB6900E0002318462437BD46CE
:1003100090BD00BFF851050080B588B000AF78608F
:100320000B46FB7013463B8007F10803184600217B
:1003300010222EF05BFC0323FB8320233B76FB780B
:100340007B763B88DBB2BB767B68DB883B81022314
:10035000BB720023BB8107F11E033B6107F1180349
:100360007B617B689A8807F1080310461946FFF7FE
:1003700033FE2037BD4680BD80B588B000AF7860C1
:1003800039600423FB8307F108031846002110227B
:100390002EF02CFC02233B727B689B7B002B06D04B
:1003A000BB7B43F00103BB730023BB8102E040F23F
:1003B000FD13BB817B689A8807F108031046194634
:1003C000FFF70EFEB861BB69112BF3D0BB89002B80
:1003D0001FD10320104907F0FFFE3B681B7B012B58
:1003E00002D10123FB8302E00223FB8300BF3B68B1
:1003F0001A7BFB8B786811461A46FFF78DFFFB8B43
:10040000012B06D13B681B7B012B02D17868FFF7DB
:100410005BFE2037BD4680BD0852050080B584B024
:1004200000AF786039603B689A887B689B889A4205
:1004300000D01EE03B680633FB60FB681B78022B94
:1004400017D1FB685A887B68DB889A4211D1FB6818
:100450001B7A042B0DD0FB681B7A062B09D0FB6896
:100460001B7A052B05D0FB68023378681946FFF725
:1004700083FF1037BD4680BD80B483B000AF786085
:1004800039603B689A887B689A800C37BD465DF876
:10049000047B704780B483B000AF786039607B68BC
:1004A0009A883B689B889A4200D003E07B684FF6AD
:1004B000FF729A800C37BD465DF8047B704700BF21
:1004C00090B585B000AF786039603B680633FB605B
:1004D000FB681A887B685B899A4200D02EE0FB6833
:1004E0005B89022B2AD1FB680C33184601F08CF98A
:1004F00003461A467B689A737B689B7B1C46FB68A5
:100500000C33184601F06AF9034603200D492246D0
:1005100007F088FE7B681B69002B0FD07B689B7BF4
:10052000002B02D001233B7201E002233B727B6867
:100530001B6907F108027868114698471437BD46D1
:1005400090BD00BF3452050080B584B000AF786024
:1005500039603B680633FB60FB681A887B68DB8880
:100560009A4205D17B681B7D002B01D0FFF774FDFB
:100570001037BD4680BD00BF80B582B000AF786047
:1005800039607B68002B00D12CE03B68002B00D148
:1005900028E03B681B88502B1AD0502B04DC102B12
:1005A00007D0112B0AD01DE0512B0CD0532B14D0A7
:1005B00018E078683968FFF75FFF13E078683968FA
:1005C000FFF768FF0EE078683968FFF727FF09E05A
:1005D00078683968FFF774FF04E078683968FFF7D6
:1005E000B3FF00BF0837BD4680BD00BF6DDF704759
:1005F000184600BF72DF7047184600BF79DF7047AA
:10060000184600BF7DDF7047184600BF64DF7047A3
:10061000184600BF80B483B000AF03463960FB804A
:10062000FB88DAB23B681A703B680133FA88120A19
:1006300092B2D2B21A70022318460C37BD465DF84A
:10064000047B704780B588B000AFF860B96013468E
:10065000FB80BB681B8803F10902FB889A4201D921
:100660000C2353E007F114031846FFF7BFFFF861AE
:10067000FB69002B01D0FB6948E0BB681B881A4668
:10068000FB68134408221A70BB681B8801339AB2B6
:10069000BB681A80BB681B881A46FB6813441B2280
:1006A0001A70BB681B8801339AB2BB681A80BB689A
:1006B0001B881A46FB681A4407F1140301331046DD
:1006C000194606222EF06CFABB681B8806339AB2D4
:1006D000BB681A803B7D23F00103DBB2002B07D1FE
:1006E000BB681B881A46FB68134400221A7006E098
:1006F000BB681B881A46FB68134401221A70BB684A
:100700001B8801339AB2BB681A8000231846203731
:10071000BD4680BD80B588B000AFF860B9607A6032
:100720007B80FB681B78012B05D1FB685B78002B75
:1007300001D1072377E07B681B889A1C7B889A424B
:100740000DD8FB681B78012B0BD17B681B881A46E0
:10075000FB685B7813449A1C7B889A4201D90C236E
:1007600061E07B681B887A88D31A9BB2023BBB830B
:10077000BB8BFB827B681B880233BA681A4407F183
:10078000160310461946FFF73DFFB861BB69002B01
:1007900001D0BB6947E0FB681B78022B06D1FB8ABE
:1007A000BA8B9A4202D30923FB7712E00823FB7726
:1007B000FB681B78012B0AD1FB685B789BB2BA8B74
:1007C0009A4204D3FB685B789BB2FB8201E0BB8B4F
:1007D000FB82FB8AFE2B01D90C2324E07B681B885B
:1007E0001A46BB681344FA8AD2B20132D2B21A70E6
:1007F0007B681B8801339AB27B681A807B681B88F0
:100800001A46BB681344FA7F1A707B681B88013351
:100810009AB27B681A807B681A88FB8A13449AB262
:100820007B681A80002318462037BD4680BD00BF74
:1008300080B586B000AFF860B9601346FB80BB6836
:100840001B881A1DFB889A4201D90C2338E007F156
:1008500012031846FFF7D2FE78617B69002B01D0A6
:100860007B692DE0BB681B881A46FB681344032292
:100870001A70BB681B8801339AB2BB681A80BB68C8
:100880001B881A46FB68134419221A70BB681B8820
:1008900001339AB2BB681A807A8ABB681B881946F2
:1008A000FB680B4410461946FFF7B4FE0346194691
:1008B000BB681A888BB213449AB2BB681A800023B3
:1008C00018461837BD4680BD80B485B000AFB9600A
:1008D0007A601A460346FB731346BB817B681B880C
:1008E000DA1CBB899A4201D90C2327E07B681B885C
:1008F0001A46BB68134402221A707B681B880133B6
:100900009AB27B681A807B681B881A46BB681344BE
:1009100001221A707B681B8801339AB27B681A80A7
:100920007B681B881A46BB681344FA7B1A707B6885
:100930001B8801339AB27B681A800023184614374B
:10094000BD465DF8047B704780B485B000AFB960E8
:100950007A601A460346FB731346BB817B681B888B
:10096000DA1CBB899A4201D90C2327E07B681B88DB
:100970001A46BB68134402221A707B681B88013335
:100980009AB27B681A807B681B881A46BB6813443E
:100990000A221A707B681B8801339AB27B681A801E
:1009A0007B681B881A46BB681344FA7B1A707B6805
:1009B0001B8801339AB27B681A80002318461437CB
:1009C000BD465DF8047B704780B58AB000AFF86023
:1009D0007B600B46FB721346BB72002387F8233003
:1009E0003B6B1B883B8400237B626BE0FB685A688F
:1009F0007B6A9B001A4407F110031068186007F126
:100A0000100207F11703104619460022FFF7FEFDFA
:100A1000F861FB69002B01D0FB6970E0FB7DBA7ABD
:100A20009A424CD197F82330002B01D0002300E0EC
:100A30000223FB763B6B1B881A46FB7D1A44FB7E28
:100A40001A44BB8E9A4201DD0C2358E097F82330FC
:100A500083F00103DBB2002B15D03B6B1B88013305
:100A60009AB23B6B1A803B6B1B881A467B68134417
:100A7000FA7A1A703B6B1B8801339AB23B6B1A806F
:100A8000012387F823303B6B1B881A467B6813448D
:100A900007F1100107F11702084611461A46FFF741
:100AA000B5FDF861FB69002B01D0FB6927E03B6BCA
:100AB0001A88FB7D9BB213449AB23B6B1A807B6A07
:100AC00001337B62FB681B881A467B6A9A428DDC85
:100AD00097F82330002B11D03B6B1A883B8CD31A2C
:100AE0009BB2013B3B833B8BFF2B01D90C2306E0E0
:100AF0003B8C7A6813443A8BD2B21A7000231846A2
:100B00002837BD4680BD00BF80B588B002AFF86011
:100B10007B600B46FB721346BB72FA7A3B6A00930A
:100B2000BB8C0193F868114602227B68FFF74CFFEB
:100B300078617B69002B01D07B6911E0BA7A3B6A4E
:100B40000093BB8C0193F868114610227B68FFF775
:100B50003BFF78617B69002B01D07B6900E00023BB
:100B600018461837BD4680BD80B483B000AF7860AA
:100B70007B681B88052B0AD97B681B88B3F5486FF7
:100B800007D97B681B884FF6FF72934201D0072379
:100B900025E07B685B88052B0AD97B685B88B3F509
:100BA000486F07D97B685B884FF6FF72934201D08C
:100BB000072314E07B681B884FF6FF7293420DD029
:100BC0007B685B884FF6FF72934207D07B681A8878
:100BD0007B685B889A4201D9072300E0002318460E
:100BE0000C37BD465DF8047B704700BF80B586B00A
:100BF00000AFF860B9607A607B807B681B889A1DC3
:100C00007B889A4201D90C234BE0F868FFF7ACFFD0
:100C100078617B69002B01D07B6942E07B681B888F
:100C20001A46BB68134405221A707B681B8801337F
:100C30009AB27B681A807B681B881A46BB6813448B
:100C400012221A707B681B8801339AB27B681A8063
:100C5000FB681A887B681B881946BB680B441046E2
:100C60001946FFF7D7FC034619467B681A888BB2F2
:100C700013449AB27B681A80FB685A887B681B8889
:100C80001946BB680B4410461946FFF7C3FC0346E0
:100C900019467B681A888BB213449AB27B681A8013
:100CA000002318461837BD4680BD00BF80B586B00A
:100CB00000AFF860B9607A607B80FB689B88023384
:100CC0007B617B681B881A467B6913449A1C7B886E
:100CD0009A4201D90C2356E07B69FE2B01D90C23E3
:100CE00051E07B681B881A46BB6813447A69D2B20C
:100CF0000132D2B21A707B681B8801339AB27B68CA
:100D00001A807B681B881A46BB681344FF221A703E
:100D10007B681B8801339AB27B681A80FB681A884B
:100D20007B681B881946BB680B4410461946FFF7C1
:100D300071FC034619467B681A888BB213449AB239
:100D40007B681A80FB689B88002B1BD0FB689B6824
:100D5000002B01D1072316E07B681B881A46BB686D
:100D60009918FB689A68FB689B88084611461A46E2
:100D70002DF016FF7B681A88FB689B8813449AB293
:100D80007B681A80002318461837BD4680BD00BF17
:100D900080B588B000AFF860B9607A607B80FB688E
:100DA0009B6A002B01D107236FE00023FB7765E0EE
:100DB000FB68996AFA7F13465B0013449B000B445F
:100DC000BB61BB699B8802337B617B69FE2B01D9C8
:100DD0000C235AE07B681B881A46BB6813447A6967
:100DE000D2B20132D2B21A707B681B8801339AB238
:100DF0007B681A807B681B881A46BB6813441622DE
:100E00001A707B681B8801339AB27B681A80BB69B1
:100E10001A887B681B881946BB680B441046194624
:100E2000FFF7F8FB034619467B681A888BB2134418
:100E30009AB27B681A80BB699B88002B1BD0BB6968
:100E40009B68002B01D107231FE07B681B881A4693
:100E5000BB689918BB699A68BB699B8808461146AC
:100E60001A462DF09DFE7B681A88BB699B88134447
:100E70009AB27B681A80FB7F0133FB77FB6893F89B
:100E80002C30FA7F9A4293D3002318462037BD4670
:100E900080BD00BF80B588B002AFF860B9607A60ED
:100EA00000237B617B681B887B827B6800221A8021
:100EB000FB6893F82D30002B0BD07B8AB8687968DB
:100EC0001A46FFF7BFFB78617B69002B01D07B6975
:100ED000C2E0FB689B78002B0BD07B8AB8687968EE
:100EE0001A46FFF7A5FC78617B69002B01D07B696E
:100EF000B2E0FB68DB78002B0FD0FB68DB78DBB25D
:100F00005AB27B8A1046B9687A68FFF7DDFC7861CF
:100F10007B69002B01D07B699EE0FB685B68002B3E
:100F20000FD0FB685B681B785AB27B8A1046B968A1
:100F30007A68FFF709FD78617B69002B01D07B6936
:100F40008AE0FB681B89002B12D0FB6803F10802C2
:100F50007B6800937B8A0193104602210622BB68BE
:100F6000FFF7D2FD78617B69002B01D07B6973E0CC
:100F7000FB681B8A002B12D0FB6803F110027B6810
:100F800000937B8A0193104603210722BB68FFF779
:100F9000BBFD78617B69002B01D07B695CE0FB685D
:100FA0001B8B002B12D0FB6803F118027B680093A7
:100FB0007B8A0193104614211522BB68FFF7A4FD1C
:100FC00078617B69002B01D07B6945E0FB681B6A77
:100FD000002B0DD0FB681A6A7B8A1046B9687A68C4
:100FE000FFF704FE78617B69002B01D07B6933E059
:100FF000FB685B6A002B0DD0FB685A6A7B8A10463F
:10100000B9687A68FFF752FE78617B69002B01D0DE
:101010007B6921E0FB6893F82C30002B0BD07B8A96
:10102000F868B9687A68FFF7B3FE78617B69002BCE
:1010300001D07B6910E0FB681B78002B0BD07B8A0A
:10104000F868B9687A68FFF765FB78617B69002BFF
:1010500001D07B6900E07B6918461837BD4680BD2A
:1010600080B483B000AF78607B68DB7803F0040362
:10107000002B01D1072300E0002318460C37BD46A2
:101080005DF8047B704700BF80B483B000AF786028
:101090007B68DB78002B01D0072300E00023184693
:1010A0000C37BD465DF8047B704700BF80B596B035
:1010B00000AF786039601F23A7F84A301F23A7F8D4
:1010C00048307B68002B1BD07868FFF7C9FFF864B5
:1010D000FB6C002B01D0FB6C47E007F1280207F105
:1010E0004A03786811461A46FFF7D4FEF864FB6C91
:1010F000002B01D0FB6C38E007F128037B6504E08E
:1011000000237B650023A7F84A303B68002B1BD0E7
:101110003868FFF7B9FFF864FB6C002B01D0FB6C5B
:1011200023E007F1080207F14803386811461A4620
:10113000FFF7B0FEF864FB6C002B01D0FB6C14E0F1
:1011400007F108033B6504E000233B650023A7F893
:101150004830B7F84A30DAB2B7F84830DBB2786DC9
:1011600011463A6DFFF746FA034618465837BD4612
:1011700080BD00BF75DF7047184600BF76DF70473F
:10118000184600BF7ADF7047184600BF7BDF704704
:10119000184600BF80B483B000AF78607B685A887F
:1011A000094B1B889A4207D37B685A88064B5B8899
:1011B0009A4201D8012300E0002318460C37BD46AF
:1011C0005DF8047B704700BF3845002080B586B0CD
:1011D00000AF7860264B1B884FF6FF72934244D0D5
:1011E000244B1B780133DAB2224B1A70224B1A7B44
:1011F000204B1B789A4213D31D4B1B8818461F495E
:10120000FFF7B8FF78617B69002B08D01A4B9B6908
:10121000002B04D0184B9B697869984725E024E09F
:10122000144B00221A70144B1B7C002B11D0104B56
:101230001B8818463B21FFF7A1FF38613B69002B53
:1012400007D00D4B9B69002B03D00B4B9B69386972
:101250009847094B5B69002B07D000233B73064B73
:101260005B6907F10C02104698471837BD4680BDF0
:1012700042450020404500201C4500203845002004
:10128000B0B584B000AF78601C4A7B6814461D4638
:101290000FCD0FC495E8070084E80700184B002223
:1012A0001A707B681B68002B0ED07B681A68154B80
:1012B0001068516803C31348FFF764FFF860FB68C8
:1012C000002B0AD0FB6815E00E48FFF75FFFF860BF
:1012D000FB68002B01D0FB680CE00B4B4FF6FF7254
:1012E0001A800A4B00221A7009480021094A08F0A6
:1012F00027F9034618461037BD46B0BD1C450020EF
:101300006C45002038450020424500204045002023
:1013100074520500CD11020080B584B000AF24489E
:10132000FFF738FF034683F00103DBB2002B2ED01A
:10133000204B1B78002B0BD01F4B5B69002B25D05B
:1013400000233B711C4B5B693A1D1046984729E00E
:101350001A4B1B78002B03D1174B5B68FB6002E034
:10136000154B9B68FB60164B1846F968002208F085
:101370001BF9B860BB68002B08D00F4B9B69002B92
:1013800004D00D4B9B69B86898470BE00AE00A4B04
:101390005B69002B06D001233B70074B5B693A4623
:1013A00010469847034B00221A701037BD4680BD87
:1013B000444500206C4500201C450020404500208D
:1013C0004C45002080B582B000AF78607B689A8879
:1013D0000A4B1A800A4A7B68103393E8030082E8BC
:1013E0000300084B00221A70074BDB89002B01D148
:1013F000FFF792FF0837BD4680BD00BF4245002081
:1014000044450020404500201C45002080B584B0A4
:1014100000AF78600C4B4FF6FF721A800B4B002226
:101420001A700B4B184608F0F3F8F860FB68002BB5
:1014300007D0084B9B69002B03D0064B9B69F868CB
:1014400098471037BD4680BD4245002040450020EA
:101450004C4500201C45002080B584B000AF78606A
:101460007B680633FB60FB681A88134BDB899A4262
:101470001ED1FB685B89022B1AD1FB680C3318461E
:1014800000F0ACF90346002B02D0FFF745FF0FE058
:101490000A4B184608F0BCF8B860BB68002B07D0B0
:1014A000054B9B69002B03D0034B9B69B868984799
:1014B0001037BD4680BD00BF1C4500204C450020B4
:1014C00080B582B000AF7860054A7B68083393E846
:1014D000030082E80300FFF71FFF0837BD4680BD09
:1014E0004445002080B582B000AF78607B681B88DF
:1014F000112B0DD0112B02DC102B05D014E0122B78
:101500000ED0502B08D00FE07868FFF75BFF0BE0A0
:101510007868FFF77BFF07E07868FFF79DFF03E03F
:101520007868FFF7CDFF00BF0837BD4680BD00BF1C
:1015300080B584B000AF78601A4B7A681068516843
:1015400003C31848FFF71EFEF860FB68002B24D188
:101550001548FFF71FFE034683F00103DBB2002BA3
:101560000DD0124B01221A70114B1B8818460D49E1
:10157000FFF700FEF8600F4B01221A700DE00E4BD2
:101580005B69002B07D001233B720B4B5B6907F1B2
:101590000802104698470023FB60FB681846103786
:1015A000BD4680BD38450020444500206C450020E4
:1015B00042450020404500201C45002080B584B0F5
:1015C00000AF0346FB80144B5B6CDB43184608F00E
:1015D000C7F90346FB81FB894FF6FF72934215D092
:1015E000FB890D4A5B001344FA889A80FB880B48FC
:1015F0000B491A46012308F0D1F9FB88074809492D
:101600001A46012308F0CAF9012300E00023184616
:101610001037BD4680BD00BF7045002074450020D6
:10162000B8450020B445002090B585B002AF034610
:10163000FB80FC8800230093044805491D222346B3
:1016400008F0C4F90C37BD4690BD00BF74450020BA
:10165000B445002080B582B000AF0346FB80FB8814
:10166000044805491A46002308F098F90837BD4692
:1016700080BD00BF74450020B845002090B5A5B0DE
:1016800000AF184B9B6CDA43164B5B6C13403A4629
:10169000104615491A4608F0E1F907F148023B46A1
:1016A00044241046194622462DF07AFA0023C7F842
:1016B0008C300FE0D7F88C305B0007F190021344B8
:1016C00033F8443C1846FFF7AFFFD7F88C300133AE
:1016D000C7F88C30BA6CD7F88C309A42EAD8943775
:1016E000BD4690BD704500207445002080B584B093
:1016F00000AF78607B681B88112B25D01A2B29D06E
:10170000102B48D1FFF7BAFF7B689B881846FFF77C
:1017100055FF034683F00103DBB2002B05D0042004
:10172000E0211E4A07F0A0FF35E07B68DB7B022B3F
:101730000CBF01230023FB737B689A88FB7B18484E
:10174000184908F02BF926E07B689B881846FFF7BC
:1017500081FF20E07B689A887B681B7AC3F30313C0
:10176000DBB2012BCCBF01230023DBB20C480E49B6
:1017700008F014F97B689A887B681B7AC3F303131B
:10178000DBB2022BCCBF01230023DBB204480749A4
:1017900008F004F900BF1037BD4680BD785205003F
:1017A00074450020BC450020C0450020C4450020F1
:1017B00080B483B000AF78607B681B789AB27B6896
:1017C00001331B781B029BB213439BB29BB218469A
:1017D0000C37BD465DF8047B704700BF80B584B010
:1017E00000AF78607868FFF7E3FF0346FB81FB8971
:1017F00003F00103002B14BF01230023DBB21846C2
:101800001037BD4680BD00BF80B584B000AF7860A2
:101810007868FFF7CDFF0346FB81FB8903F00203E5
:10182000002B14BF01230023DBB218461037BD463E
:1018300080BD00BF80B584B000AF78603960002300
:10184000FB73FB7B5A1CFA731A467B6813443A6895
:1018500012781A70FB7B5A1CFA731A467B68134481
:101860003A6852781A70FB7B022B0CBF01230023CD
:10187000DBB2BB60BB68002B04D100204721044AC7
:1018800007F0F2FEFB7B18461037BD4680BD00BF57
:10189000D052050080B483B000AF78604FF0804232
:1018A0007B68C2F804330C37BD465DF8047B704793
:1018B00080B483B000AF78604FF080427B68C2F89C
:1018C00008330C37BD465DF8047B704780B483B0A5
:1018D00000AF0346FB71FB7903F1804301221A60DC
:1018E0000C37BD465DF8047B704700BF80B485B0FF
:1018F00000AF0346FB80FB8803F1804300221A609F
:10190000FB8803F180431B68FB60FB681437BD460E
:101910005DF8047B704700BF80B483B000AF03461E
:10192000FB80FB8803F180431B68002B14BF01235D
:101930000023DBB218460C37BD465DF8047B7047C8
:1019400080B483B000AF0346FB714FF08042FB7957
:1019500003F00303C2F818350C37BD465DF8047B6D
:10196000704700BF80B483B000AF0346FB714FF0F7
:101970008043D3F80C3403F00112FB7943F4803335
:101980009A420CBF01230023DBB218460C37BD4638
:101990005DF8047B704700BF80B483B000AF03469E
:1019A000FB710C4A97F907305B0952F82320FB7949
:1019B00003F01F0322FA03F303F00103002B14BF0B
:1019C00001230023DBB218460C37BD465DF8047BCB
:1019D000704700BF00E100E080B500AF0020FFF7D6
:1019E000DBFF034683F00103DBB2002B03D00020B2
:1019F000062100F0E1F980BD3FDF7047184600BFC7
:101A000040DF7047184600BF80B500AF08F0FEFF0A
:101A10000346002B02D0FFF7EFFF09E04FF4807080
:101A2000FFF764FF0120FFF735FF0020FFF74EFFAF
:101A300080BD00BF80B500AF08F0E8FF0346002B73
:101A400002D0FFF7DDFF0CE00420FFF73FFF00BFEF
:101A50000120FFF787FF0346002BF9D1014B00223D
:101A60005A7080BD2846002080B582B000AF0023A8
:101A70007B60144B1B78002B02D085237B601BE01E
:101A8000104B00229A600F4B00225A600D4B00222F
:101A90001A610C4B0022DA60FFF79EFF08F0B6FFD8
:101AA000034683F00103DBB2002B02D00120FFF7D5
:101AB00047FF044B01221A707B6818460837BD4661
:101AC00080BD00BF2846002080B485B000AF78609C
:101AD00039607B681B68FB6007E0FA683B689A42E4
:101AE00000D10CE0FB681B68FB60FB68002BF4D1A5
:101AF0007B681A683B681A607B683A681A6014371A
:101B0000BD465DF8047B704780B485B000AF786057
:101B10007B681B68FB60FB68002B03D0FB681A68BE
:101B20007B681A60FB6818461437BD465DF8047B75
:101B3000704700BF80B584B000AF78601E4B5B7803
:101B4000DBB2002B17D07B68002B03D07B685B686F
:101B5000002098470023FB7307F10F03184607F096
:101B600089FE154B5B680133134A5360FB7B1846B3
:101B700007F08AFE1CE00023BB7307F10E03184632
:101B800007F078FE7B68002B03D00C487968FFF7DC
:101B90009BFF094B5B68002B01D1FFF735FF064B1C
:101BA0005B680133044A5360BB7B184607F06CFE48
:101BB0001037BD4680BD00BF2846002030460020BB
:101BC00080B582B000AF0023FB71FB1D184607F003
:101BD00051FE094B5B68013B074A5360064B5B684B
:101BE000002B01D1FFF726FFFB79184607F04CFECA
:101BF0000837BD4680BD00BF2846002080B584B0B0
:101C000000AF0346FB71FB79002B02D10A4BFB604E
:101C100001E00A4BFB60F868FFF776FFB860BB682D
:101C2000002B00D105E0BB685B68FA791046984745
:101C3000F1E71037BD4680BD304600203846002011
:101C400080B500AF4FF48070FFF766FE0346002BAF
:101C50000CD04FF48070FFF749FE0120FFF728FEFB
:101C60000D4B01225A700020FFF7C8FF4FF482701D
:101C7000FFF752FE0346002B0CD04FF48270FFF7A3
:101C800035FE0220FFF714FE034B01229A7001205B
:101C9000FFF7B4FF80BD00BF2846002080B582B0AA
:101CA00000AF78607B68002B02D10020FFF7A6FF11
:101CB0000837BD4680BD00BF80B582B000AF0023AD
:101CC000FB71FB1D184607F0D5FD0C4B1B7883F00C
:101CD0000103DBB2002B01D0FFF7C6FE074BDB6828
:101CE0000133064AD360054B01229A70FB791846EE
:101CF00007F0CAFD0837BD4680BD00BF284600205A
:101D000080B483B000AF0346FB71084997F90730F0
:101D10005B09FA7902F01F02012000FA02F241F891
:101D200023200C37BD465DF8047B704700E100E0DE
:101D300080B483B000AF0346FB71094997F90730BF
:101D40005B09FA7902F01F02012000FA02F2603307
:101D500041F823200C37BD465DF8047B704700BF77
:101D600000E100E080B483B000AF03463960FB714E
:101D700097F90730002B0BDA0D49FB7903F00F03BD
:101D8000043B3A68D2B25201D2B20B441A7609E04F
:101D9000084997F907303A68D2B25201D2B20B44DF
:101DA00083F800230C37BD465DF8047B704700BF05
:101DB00000ED00E000E100E080B582B000AF034636
:101DC0000A46FB711346BB71BB7997F90720104691
:101DD0001946FFF7C7FF97F907301846FFF7A8FF26
:101DE00097F907301846FFF78BFF0837BD4680BDCF
:101DF00080B582B000AF0346FB80FB88184600F038
:101E000023F803461B68012B0CBF01230023DBB220
:101E100018460837BD4680BD80B584B000AF034684
:101E2000FB80FB88184600F00FF803461A46002393
:101E30001360FB88184600F007F803461B68FB6038
:101E4000FB681037BD4680BD80B483B000AF034649
:101E5000FB80FB8803F1804303F5C04318460C3731
:101E6000BD465DF8047B704780B483B000AF7860F6
:101E7000044A7B68C2F804330C37BD465DF8047B26
:101E8000704700BF0060004080B483B000AF78604E
:101E9000044A7B68C2F808330C37BD465DF8047B02
:101EA000704700BF0060004080B483B000AF78602E
:101EB000054BD3F804237B68134018460C37BD4606
:101EC0005DF8047B704700BF0060004080B483B0C1
:101ED00000AF78600949094A7B6803F5A27352F89C
:101EE000233043F001027B6803F5A27341F82320FD
:101EF0000C37BD465DF8047B704700BF00600040B2
:101F000080B483B000AF78600949094A7B6803F563
:101F1000A27352F8233023F001027B6803F5A27309
:101F200041F823200C37BD465DF8047B704700BFA5
:101F30000060004080B485B000AFF860B96013461F
:101F4000FB711549144AFB6803F5A27352F823305C
:101F500023F4473323F44073FA6802F5A27241F880
:101F600022300D480C4AFB6803F5A27352F8232077
:101F7000BB681B0203F4F851FB791B0403F44033E4
:101F80000B431A43FB6803F5A27340F82320143770
:101F9000BD465DF8047B70470060004080B483B0AC
:101FA00000AF7860074A7B6803F5A27352F82330CC
:101FB00003F4F8531B0A18460C37BD465DF8047B42
:101FC000704700BF0060004080B483B000AF78600D
:101FD000074A7B6803F5A27352F8233003F44033B9
:101FE0001B0CDBB218460C37BD465DF8047B70470E
:101FF0000060004080B483B000AF7860054A7B6821
:1020000003F5A273002142F823100C37BD465DF89A
:10201000047B70470060004080B483B000AF7860FC
:102020004FF0A04318460C37BD465DF8047B70475F
:1020300080B584B000AF7860084611461A46034662
:10204000FB700B46BB7013467B703B1D1846FFF7B9
:10205000E3FFF8607A68F978BB785B0019437B7816
:102060009B0019433B7E1B0219433B7F1B04194312
:10207000FB6802F5E07243F822101037BD4680BDC0
:1020800090B585B002AF78600B46FB70FC780023FA
:102090000093002301937868002100222346FFF774
:1020A000C7FF0C37BD4690BD80B584B002AF7860E5
:1020B000002300930023019378680021012200236C
:1020C000FFF7B6FF0837BD4680BD00BF80B584B0BE
:1020D00000AF78603B1D1846FFF79EFFF8607A68F6
:1020E000FB6802F5E07253F8223023F00203BB6074
:1020F0007A68FB6802F5E072B96843F8221010377D
:10210000BD4680BD80B584B000AF78600B46FB70E3
:102110003B1D1846FFF780FFF8607A687968FB6816
:1021200001F5E07153F8213023F44031FB6802F5EA
:10213000E07243F822107A687968FB6801F5E07173
:1021400053F82130F97809041943FB6802F5E0726D
:1021500043F822101037BD4680BD00BF80B584B063
:1021600000AF78603B1D1846FFF756FFF860F8682F
:1021700000F022F802467B6822FA03F303F0010321
:1021800018461037BD4680BD80B584B000AF78607A
:102190003B1D1846FFF740FFF8607A68FB6802F5C0
:1021A000E07253F8223003F440331B0CDBB21846C4
:1021B0001037BD4680BD00BF80B483B000AF7860EB
:1021C0007B68D3F8103518460C37BD465DF8047BA4
:1021D000704700BF80B586B000AFF860B9607A6024
:1021E0004FF0A0433B61FB687B6112E07B699B0081
:1021F00007F11802134453F8083C1846FFF7DCFFB8
:1022000002467B681A607B6804337B607B6901331C
:102210007B61FA68BB681A447B699A42E6D8183732
:10222000BD4680BD80B485B000AF786039603B6842
:10223000FB607B68DB08BB607B6803F007037B60A7
:102240007B68012202FA03F3F968BA680A4412783B
:10225000134018461437BD465DF8047B704700BF35
:1022600080B485B000AF786039603B68FB607B6804
:10227000DB08BB607B6803F007037B60FA68BB6820
:102280001344F968BA680A441278D0B27A68012116
:1022900001FA02F2D2B201460A43D2B2D2B21A70A5
:1022A0001437BD465DF8047B704700BF80B483B02F
:1022B00000AF78600D4A7B68134440331B785BB2F3
:1022C000002B09DB094A7B68134440331B785BB25F
:1022D000072B01DC012300E0002303F00103DBB244
:1022E00018460C37BD465DF8047B70473C4600201D
:1022F00080B483B000AF7860084A7B6813444033F1
:102300001B785BB2072BCCBF01230023DBB218463E
:102310000C37BD465DF8047B704700BF3C4600208B
:1023200080B483B000AF7860074A7B6813444033C1
:102330001B78DB43DBB2DB09DBB218460C37BD464A
:102340005DF8047B704700BF3C46002080B485B038
:1023500000AFF860B9607A60FB70BB68D9B20F4A11
:10236000FB68134440330A461A700C49BB687A680C
:1023700041F82320FB7883F00103DBB2002B08D067
:10238000BB68083BFA68D1B2044A13440A4683F892
:1023900060201437BD465DF8047B70473C46002042
:1023A00080B483B000AF7860054A7B681344403343
:1023B000FF221A700C37BD465DF8047B704700BFE2
:1023C0003C46002080B483B000AF7860054A7B684B
:1023D000134440331B785BB218460C37BD465DF89A
:1023E000047B70473C46002080B483B000AF786027
:1023F000044A7B6852F8233018460C37BD465DF816
:10240000047B70473C46002080B588B000AFF86080
:10241000B9601346FB71FF23FB77FB79002B01D0DA
:10242000002300E008237B61FB79002B01D0082307
:1024300000E010233B617B69BB6112E00E4ABB697F
:1024400052F82330B3F1FF3F08D1FB79F868B9693E
:10245000BA68FFF77BFFBB69FB7706E0BB69013316
:10246000BB61BA693B699A42E8D3FB7F5BB218460D
:102470002037BD4680BD00BF3C46002080B483B0FD
:1024800000AF0346FB71FB79094A4FF0FF3142F878
:102490002310FB79072B06D9FB79083B044A134428
:1024A000FF2283F860200C37BD465DF8047B70473F
:1024B0003C46002080B582B000AF1D4B93F86830D9
:1024C000002B03D008233B603B682CE00023FB710A
:1024D00006E0FB791846FFF763FFFB790133FB71D8
:1024E000FB791F2BF5D90023FB7106E0FB79184619
:1024F000FFF7C4FFFB790133FB71FB790F2BF5D993
:1025000006200621FFF758FC4FF4BE70FFF784FC4D
:102510004FF00040FFF7A8FC054B012283F868202C
:1025200000233B603B6818460837BD4680BD00BFAE
:102530003C46002080B400AF064B93F86830002B77
:1025400014BF01230023DBB21846BD465DF8047BAF
:10255000704700BF3C46002080B586B000AFF860F1
:10256000B9607A6000237B61F868FFF7D9FE034603
:10257000002B02D008237B6141E0BB68DB78F86860
:1025800079681A46FFF740FF0346FB7497F913304A
:10259000B3F1FF3F31D0BB689B78002B03D0F868C4
:1025A000FFF794FD05E0BB685B78F8681946FFF714
:1025B00067FDBB68DB78002B09D097F91320BB6857
:1025C0001B781046F9681A46FFF7B4FC17E097F934
:1025D0001330083B97F91320083A0B490A4492F844
:1025E0006010BA6812789201D2B20A43D1B2064A98
:1025F00013440A4683F8602001E004237B617B6971
:1026000018461837BD4680BD3C46002080B586B0D0
:1026100000AF78600B46FB707868FFF769FE0346F1
:10262000002B27D07868FFF7CDFE0346083B2A4AE7
:10263000134493F86030BB75BB7D9B097B757B7D34
:10264000032B0AD17868FFF789FD0346002B01D0E0
:10265000032300E00223FB7506E07B7D012B01D103
:10266000022300E00323FB75FB7D78681946FFF722
:1026700049FD2DE07868FFF719FE0346002B27D0AF
:102680007868FFF79FFE03463B613B699BB240338E
:102690009BB29B00FB813B691846FFF717FCFB8947
:1026A0001846FFF7B9FBFB78002B11D07868FFF7CD
:1026B00089FE03461846FFF797FEB860BB68002BFB
:1026C00006D001223B6902FA03F31846FFF7CCFB60
:1026D0001837BD4680BD00BF3C46002080B584B0A1
:1026E00000AF78607868FFF703FE0346002B04D044
:1026F00078680021FFF706FD15E07868FFF7D6FD42
:102700000346002B0FD07868FFF75CFE0346FB60A2
:10271000FB681846FFF7F4FB0122FB6802FA03F39B
:102720001846FFF7B1FB1037BD4680BD80B582B0BB
:1027300000AF78607868FFF7D1FF7868FFF7B6FDE3
:102740000346002B06D07868FFF73CFE0346184688
:10275000FFF750FC7868FFF7A7FC7868FFF732FEB8
:102760000346DBB21846FFF789FE7868FFF718FECC
:102770000837BD4680BD00BF80B582B000AF78602D
:102780007868FFF7EBFC0346002B14BF01230023FE
:10279000DBB218460837BD4680BD00BF80B594B097
:1027A00000AF0023FB640023FB604FF48073A7F8A5
:1027B000463001233B640023BB6421E0B7F8463078
:1027C0001846FFF715FB0346002B0ED0386CFFF7B9
:1027D0006BFB0346002B08D0B7F846301846FFF7CE
:1027E0001BFBFA6C3B6C1343FB643B6C5B003B6470
:1027F000B7F846300433A7F84630BB6C0133BB64EE
:10280000BB6C072BDAD94FF4BE70FFF7F1FA034621
:10281000002B0ED04FF4BE70FFF7FEFAFB6C43F0B6
:102820000043FB6407F10C03002001211A46FFF767
:10283000D1FCFB6CDBB2002B29D001233B640023CD
:10284000BB6421E03A6CFB6C1340002B16D0B86CD3
:10285000FFF7A4FB7863B86CFFF7B6FB034687F875
:102860003330B86CFFF7C0FDF862FB6A002B05D06F
:1028700097F83320FB6A786B114698473B6C5B00F6
:102880003B64BB6C0133BB64BB6C072BDAD9FB6CBC
:10289000002B80F2F080002387F83B300023BB60E0
:1028A0000023FB630BE0FB6B9B0007F1500213441A
:1028B0004FF0FF3243F84C2CFB6B0133FB63FB6B97
:1028C000002BF0D0002387F83B300023BB6473E07B
:1028D0006A4ABB6C134460331B7887F82B3097F837
:1028E0002B3023F0C0037B62644ABB6C134460331B
:1028F0001B785BB2B3F1FF3F5BD03B1D786A194692
:10290000FFF790FC0346002B53D097F82B309B0920
:1029100087F82330786AFFF755FD03461846FFF71E
:1029200063FDF861FB69002B03D197F82330032B7B
:102930003FD197F82330032B05D107F10803786ABC
:102940001946FFF78DFC786AFFF71EFC0346FB76FD
:1029500007F10C03786A1946FFF764FC78617B691C
:10296000002B02D0FB7E022B05D07B69002B20D1EF
:10297000FB7E032B1DD197F82330032B10D1FB7E58
:10298000022B01D1032300E00223FB74FB7C786A55
:102990001946FFF7B7FB97F83B30013387F83B3018
:1029A000FB69002B05D097F82320FB69786A114654
:1029B0009847BB6C0133BB64BB6C072B88D997F875
:1029C0003B30002B52D0012387F83A303B460020A1
:1029D00001211A46FFF7FEFB0023FB6316E0FB6BA9
:1029E0009B0007F15002134453F8502CFB6B9B00E3
:1029F00007F150010B4453F8443C9A4203D00023A2
:102A000087F83A3005E0FB6B0133FB63FB6B002B6F
:102A1000E5D097F83A30002B03D0002387F83B30FD
:102A200024E00023FB631EE0FB6B9B0007F15002D8
:102A3000134453F8502CFB6B9B0007F150010B44DF
:102A400043F8442CFB6B9B0007F15002134453F8EE
:102A5000482CFB6B9B0007F150010B4443F84C2CB6
:102A6000FB6B0133FB63FB6B002BDDD097F83B3036
:102A7000002B7FF427AF5037BD4680BD3C46002079
:102A800080B483B000AF0346FB710B46BB711346A5
:102A90007B710949FB797A7951331B010B445A60E8
:102AA0000549FB79BA7951331B010B441A600C3785
:102AB000BD465DF8047B70470070004080B582B071
:102AC00000AF03463960FB711E48FB793A68127803
:102AD00002F003013A685278120102F03002114309
:102AE0003A689278120202F4E06211433A68D278AE
:102AF000120302F4805211433A681279120402F46C
:102B0000E02211433A685279120502F4801211430F
:102B10003A689279120602F080720A431B0103445C
:102B200003F5A3631A603B68DA793B681B7AF9798D
:102B3000084611461A46FFF7A3FF00BF0837BD46F7
:102B400080BD00BF0070004080B483B000AF03467A
:102B5000FB71FB7903F1804303F5E83301221A602E
:102B60000C37BD465DF8047B704700BF80B483B06E
:102B700000AF0346FB80FB8803F1804303F5E83395
:102B80001B68002B14BF01230023DBB218460C374F
:102B9000BD465DF8047B704780B485B000AF034646
:102BA000FB80FB8803F1804303F5E83300221A60C1
:102BB000FB8803F1804303F5E8331B68FB60FB6887
:102BC0001437BD465DF8047B704700BF80B483B006
:102BD00000AF7860044A7B68C2F804330C37BD4606
:102BE0005DF8047B704700BF00D0014080B400AFA7
:102BF000034B0122C3F80025BD465DF8047B7047F6
:102C000000D0014080B400AF034B0022C3F8002580
:102C1000BD465DF8047B704700D0014080B483B0AE
:102C200000AF03460A46FB711346BB710749FB79A7
:102C300003F00102BB795B0003F002031343C1F808
:102C400008350C37BD465DF8047B704700D0014065
:102C500080B483B000AF7860044A7B68C2F8043562
:102C60000C37BD465DF8047B704700BF00D00140C3
:102C700080B483B000AF78603960064A7B68C2F8E0
:102C80004035044A3B68C2F844350C37BD465DF810
:102C9000047B704700D0014080B483B000AF03468E
:102CA0000A46FB711346BB71064AFB79C2F8183518
:102CB000044ABB79C2F81C350C37BD465DF8047B6D
:102CC000704700BF00D0014080B483B000AF78608F
:102CD0003960064A7B68C2F86035044A3B68C2F82E
:102CE00064350C37BD465DF8047B704700D0014069
:102CF00080B400AF034BD3F860351846BD465DF88D
:102D0000047B704700D0014080B483B000AF78608E
:102D10004FF0A04318460C37BD465DF8047B704762
:102D200080B584B000AF7860084611461A46034665
:102D3000FB700B46BB7013467B703B1D1846FFF7BC
:102D4000E3FFF8607A68F978BB785B0019437B7819
:102D50009B0019433B7E1B0219433B7F1B04194315
:102D6000FB6802F5E07243F822101037BD4680BDC3
:102D700080B584B002AF78600023009300230193F4
:102D80007868012101220023FFF7CAFF0837BD46FA
:102D900080BD00BF90B585B002AF78600B46FB7078
:102DA000FC7800230093002301937868002100221F
:102DB0002346FFF7B5FF0C37BD4690BD80B584B004
:102DC00000AF78603B1D1846FFF79EFFF8607B68F8
:102DD0001A4601239340F868194600F003F81037AB
:102DE000BD4680BD80B483B000AF786039607B6839
:102DF0003A68C3F80C250C37BD465DF8047B704774
:102E000080B500AF4FF48470FFF7B0FE0346002B8F
:102E10001ED04FF48470FFF7BFFEFFF769FF024634
:102E2000274BDB689A4209D1254B5B68244A11691C
:102E3000234A128908461146984740E0204B5B68B8
:102E40001F4AD1681E4A128908461146984736E043
:102E50004FF48070FFF78AFE0346002B1FD04FF41B
:102E60008070FFF799FE164B01225A70FFF740FF62
:102E70000246134BDB689A4208D1114B1A69104B7A
:102E80001B8910461946FFF71FFF18E00C4BDA6844
:102E90000B4B1B8910461946FFF716FF0FE04FF446
:102EA0008270FFF763FE0346002B08D04FF4827058
:102EB000FFF772FEFFF7A6FE014B00225A7080BD9D
:102EC000A846002080B584B000AF786039603F4BE1
:102ED0001B78002B03D00823FB60FB6871E07B6844
:102EE000002B02D03B68002B03D10723FB60FB685B
:102EF00067E07B681B7A502B08D87B685B7A502B85
:102F000004D87B689B89B3F5004F03D90723FB6086
:102F1000FB6856E07B681B692C4AD3607B685B6961
:102F20002A4A13617B689A89284B1A81274A3B6891
:102F30005360264B00225A70244BDA68234B1B89BE
:102F400010461946FFF7C0FE7B685B681846FFF71E
:102F50007FFE7B681A787B685B7810461946FFF71E
:102F60005DFE7B681A7A7B685B7A10461946FFF72C
:102F700093FE7B689B781846FFF7FAFE7B689B7888
:102F80001846FFF71BFF7B68DB7818460121FFF727
:102F900001FF7B689B781A467B68DB7810461946F0
:102FA000FFF766FE094B01221A700720FFF70EFE9D
:102FB0007B689B7A1D201946FEF7FEFE0023FB600E
:102FC000FB6818461037BD4680BD00BFA8460020EC
:102FD00080B582B000AF134B5B78002B0BD0114B48
:102FE0005B78012B03D100237B607B6815E0112304
:102FF0007B607B6811E00B4B02225A70094B022266
:103000001A70FFF7F3FD4FF48070FFF7C5FD002045
:10301000FFF79AFD00237B607B6818460837BD46A2
:1030200080BD00BFA846002080B582B000AF114B24
:103030005B78012B0DD00F4B5B78002B05D1FFF790
:10304000E1FD00237B607B680FE011237B607B68E0
:103050000BE0084B02225A70064B01221A70042022
:10306000FFF772FD00237B607B6818460837BD467A
:1030700080BD00BFA846002080B483B000AF786058
:103080000B46FB70FB787A68134401221A600C37F8
:10309000BD465DF8047B704780B483B000AF7860B4
:1030A0000B46FB70FA787B68134418460C37BD4614
:1030B0005DF8047B704700BF80B485B000AF7860D6
:1030C0000B467B807B887A68134400221A607B88D9
:1030D0007A6813441B68FB60FB681437BD465DF8D3
:1030E000047B704780B483B000AF78600B467B8070
:1030F0007B887A6813441B68002B14BF01230023CC
:10310000DBB218460C37BD465DF8047B704700BF44
:1031100080B483B000AF786039607B683A68C3F8E8
:1031200000220C37BD465DF8047B704780B483B045
:1031300000AF786039607B683A68C3F800230C37C9
:10314000BD465DF8047B704780B483B000AF786003
:103150007B680122C3F800250C37BD465DF8047B6F
:10316000704700BF80B485B000AF7860396000233D
:10317000FB730DE0FA7BFB7B9B0039680B441968FD
:103180007B6802F5AC7243F82210FB7B0133FB73C2
:10319000FB7B032BEED91437BD465DF8047B7047EB
:1031A00080B483B000AF7860084611461A460346E3
:1031B000FB700B46BB7013463B80FA787B68C3F804
:1031C0000C25BA787B68C3F804253A887B68C3F875
:1031D00008250C37BD465DF8047B704780B584B088
:1031E00000AFF8600B467A60FB727B681B68FA7A66
:1031F000F86811461A4600F01BF87B689B88FA7A3B
:10320000F86811461A4600F027F87B689B68FA7A3E
:10321000F86811461A4600F033F87B68DB68FA7AE2
:10322000F86811461A4600F03FF81037BD4680BDD9
:1032300080B485B000AFF8600B467A60FB72FB7A11
:103240007A68F96829335B010B441A601437BD466C
:103250005DF8047B704700BF80B483B000AF786036
:103260000B46FB7013463B80FB783A88796829331C
:103270005B010B445A600C37BD465DF8047B704718
:1032800080B485B000AFF8600B467A60FB72FB7AC1
:10329000FA685B01134403F5A5637A681A60143772
:1032A000BD465DF8047B704780B485B000AFF86020
:1032B0000B467A60FB72FB7AFA685B01134403F5F4
:1032C000A5637A685A601437BD465DF8047B704781
:1032D00080B483B000AF78600B46FB701346BB70C0
:1032E000FA78BB781B021A437B68C3F810250C37A9
:1032F000BD465DF8047B704780B483B000AF786052
:103300000B467B807A887B68C3F814250C37BD4652
:103310005DF8047B704700BF80B485B000AF786073
:103320007B681B0BFB73FB7B5BB218461437BD46F7
:103330005DF8047B704700BF80B483B000AF786055
:103340004FF0A04318460C37BD465DF8047B70472C
:1033500080B584B000AF7860084611461A4603462F
:10336000FB700B46BB7013467B703B1D1846FFF786
:10337000E3FFF8607A68F978BB785B0019437B78E3
:103380009B0019433B7E1B0219433B7F1B041943DF
:10339000FB6802F5E07243F822101037BD4680BD8D
:1033A00080B584B002AF78600023009300230193BE
:1033B0007868012101220023FFF7CAFF0837BD46C4
:1033C00080BD00BF80B584B000AF78603B1D18465B
:1033D000FFF7B2FFF8607B681A4601239340F86854
:1033E000194600F017F81037BD4680BD80B584B08F
:1033F00000AF78603B1D1846FFF79EFFF8607B68C2
:103400001A4601239340F868194600F011F8103766
:10341000BD4680BD80B483B000AF786039607B6802
:103420003A68C3F808250C37BD465DF8047B704741
:1034300080B483B000AF786039607B683A68C3F8C5
:103440000C250C37BD465DF8047B704780B588B00D
:1034500000AF786039600023FB7747E0FB7F3A6874
:10346000D35CBB77BB7FFF2B34D0BB7F03F08003E3
:10347000002B14BF012300237B77FB7FBA7F22F050
:1034800080029B0007F120010B4443F8142C7B7F42
:10349000002B0AD0FB7F9B0007F12002134453F856
:1034A000143C1846FFF78EFF09E0FB7F9B0007F1F5
:1034B0002002134453F8143C1846FFF797FFFB7F94
:1034C0009B0007F12002134453F8143C1846FFF701
:1034D00067FF08E0FB7F9B0007F1200213444FF0D9
:1034E000FF3243F8142CFB7F0133FB77FB7F032B68
:1034F000B4D97B681A6807F10C0310461946FFF728
:1035000031FE2037BD4680BD80B586B000AFF86083
:10351000B9607A60FB681B79DB00384A13447B6131
:103520007B691B79DBB2002B03D008233B613B692D
:103530005FE07B697A681A60F868B968FFF786FF10
:10354000FB681B681846FFF7FFFDFB681868BB683F
:103550005979BB689A79BB681B89FFF721FEFB6824
:103560001968BB689A7ABB68DB7A084611461A4626
:10357000FFF7AEFEFB681B6818460021FFF7C8FD89
:10358000FB681B6818460021FFF7D0FDFB681B682D
:1035900018464FF48E71FFF78FFDFB681B681846C5
:1035A0004FF48871FFF788FDFB681B6818464FF4DD
:1035B0008A71FFF781FDFB681B6818464FF4827122
:1035C000FFF77AFD7B691B68002B0CD0FB681B683A
:1035D0001846FFF7A1FE03461A46BB681B79104642
:1035E0001946FEF7E9FB7B6901221A7100233B6152
:1035F0003B6918461837BD4680BD00BFBC46002059
:1036000080B586B000AFF860B96011461A460B4627
:10361000FB711346BB71BB6802221A71BB68FA7951
:103620005A71BB681B68002B22D082237B61FB7917
:1036300003F00403002B03D07B6943F010037B618C
:10364000FB7903F00803002B03D07B6943F02003D0
:103650007B61FB7903F01003002B03D07B6923F01F
:1036600080037B61FB681B6818467969FFF75EFD84
:10367000FB681B6818464FF48271FFF71DFDFB794C
:103680005BB2002B09DAFB681A68BB791046194651
:10369000FFF702FD38613B6907E0FB681A68BB79F8
:1036A00010461946FFF7E8FC002318461837BD46B8
:1036B00080BD00BF80B588B000AFF860B9603B60E6
:1036C0001346FB80FB681B79DB002A4A1344BB616D
:1036D000FB681B6818460021BA68FFF77FFDFB688E
:1036E0001B6818460121BA68FFF778FDFB8803F0D4
:1036F0000103002B14BF01230023FB75FB6819682D
:10370000FB885B089AB2FB7D9BB213449BB20846D0
:103710001946FFF7F1FD3B6803F00103002B02D0CF
:103720001023FB610EE03B6803F00203002B07D07F
:10373000FB7D002B01D0082300E00423FB6101E0A6
:103740000023FB61FB681B681846F969FFF7E0FC82
:103750003B68DAB2FB7D002B01D00C2300E008238C
:10376000F868B969FFF74CFF034618462037BD4695
:1037700080BD00BFBC46002080B586B000AFF860B9
:10378000B9607A607B80FB681B79DB001E4A1344BA
:103790003B61FB681B6818460021BA68FFF71EFDF5
:1037A000FB681B68184601217A68FFF717FDFB6864
:1037B0001A687B8810461946FFF79EFD3B6A03F0A6
:1037C0000103002B02D010237B6109E03B6A03F068
:1037D0000203002B02D004237B6101E000237B6104
:1037E000FB681B6818467969FFF792FC3B6ADBB2FD
:1037F000F86839691A460823FFF702FF034618469E
:103800001837BD4680BD00BFBC46002080B584B0DF
:1038100000AF78600B46FB700023FB73786800F004
:103820001FF80346002B02D00123FB7312E07B68D4
:103830001B6818460421FFF71FFC786800F010F899
:103840000346002B03D00123FB7300BF02E0FB788B
:10385000002BF2D1FB7B18461037BD4680BD00BF60
:1038600080B584B000AF78607B681B79DB00104ABC
:103870001344BB600023FB73BB681B79DBB2022BD4
:1038800001D00123FB737B681B6818464FF48271DB
:10389000FFF728FC0346002B04D0BB6801221A71F5
:1038A0000123FB73FB7B18461037BD4680BD00BF6C
:1038B000BC46002080B582B000AF7860396078687F
:1038C0004FF48871FFF70EFC0346002B12D0786886
:1038D0004FF48871FFF7F0FB3B685B7903F004035A
:1038E000002B07D03B681B68002B03D03B681B688C
:1038F0000120984778684FF48A71FFF7F3FB03467D
:10390000002B12D078684FF48A71FFF7D5FB3B6823
:103910005B7903F00803002B07D03B681B68002B82
:1039200003D03B681B680220984778684FF48E717B
:10393000FFF7D8FB0346002B12D078684FF48E7146
:10394000FFF7BAFB3B685B7903F01003002B07D14C
:103950003B681B68002B03D03B681B68002098471E
:1039600078684FF48271FFF7BDFB0346002B0FD040
:1039700078684FF48271FFF79FFB3B6801221A7150
:103980003B681B68002B03D03B681B6803209847EB
:103990000837BD4680BD00BF80B500AF024803496F
:1039A000FFF788FF80BD00BF00C00140BC4600207B
:1039B00080B483B000AF7860044A7B68C2F80433F7
:1039C0000C37BD465DF8047B704700BF00D0004057
:1039D00080B483B000AF7860044A7B68C2F80833D3
:1039E0000C37BD465DF8047B704700BF00D0004037
:1039F00080B483B000AF0346FB71084BD3F80823B3
:103A0000FB791340002B14BF01230023DBB21846BF
:103A10000C37BD465DF8047B704700BF00D0004006
:103A200080B483B000AF0346FB71FB7903F18043A0
:103A300003F5504301221A600C37BD465DF8047B44
:103A4000704700BF80B485B000AF0346FB80FB88A1
:103A500003F1804303F5504300221A60FB8803F111
:103A6000804303F550431B68FB60FB681437BD4679
:103A70005DF8047B704700BF80B483B000AF03469D
:103A8000FB80FB8803F1804303F550431B68002B48
:103A900014BF01230023DBB218460C37BD465DF886
:103AA000047B704780B400AF044BD3F80835DBB219
:103AB0001846BD465DF8047B704700BF00D000404B
:103AC0002FDF7047184600BF30DF7047184600BF31
:103AD00080B500AF4FF48070FFF7B4FF0120FFF70F
:103AE00067FF0020FFF79CFF80BD00BF80B500AFDF
:103AF0000120FFF76DFF0420FFF792FF80BD00BF9C
:103B000080B582B000AF786006F080FF0346002BDE
:103B100006D07868FFF7D4FF0346002B00D106E0FB
:103B2000044804F077FD0346DAB27B681A70083760
:103B3000BD4680BD2853050080B584B000AF7860D5
:103B40000B46FB700023FB600023BB7207F10A03E6
:103B5000184605F08FFE06F059FF0346FB72FB7A0C
:103B600083F00103DBB2002B08D0FB7811487968A1
:103B70001A4604F023FDF860FFF7AAFFBB7A184647
:103B800005F082FEFB7A002B0CD0FB787868194692
:103B9000FFF79AFFF860FB6842F20702934201D1F7
:103BA0000523FB60FB68022BCED0FB68184610375C
:103BB000BD4680BD2853050080B582B000AF00230C
:103BC000FB71FB1D184605F055FE06F01FFF03466E
:103BD00083F00103DBB2002B21D04FF48070FFF79C
:103BE0004BFF0346002B1AD00120FFF701FF0346CD
:103BF000002B14D04FF48070FFF724FFFFF752FF23
:103C00000346BB71BB1D0948194604F0CBFB0748AE
:103C100004F0ACFB0346002B01D0FFF767FFFB79F4
:103C2000184605F031FE0837BD4680BD2853050013
:103C300080B483B000AF0346FB71094997F90730A0
:103C40005B09FA7902F01F02012000FA02F2203328
:103C500041F823200C37BD465DF8047B704700BF58
:103C600000E100E080B483B000AF0346FB71FB7954
:103C700003F1804303F5E04301221A600C37BD468F
:103C80005DF8047B704700BF80B483B000AF03468B
:103C9000FB80FB8803F1804303F5E0431B68002BA6
:103CA00014BF01230023DBB218460C37BD465DF874
:103CB000047B704780B485B000AF0346FB80FB886F
:103CC00003F1804303F5E04300221A60FB8803F10F
:103CD000804303F5E0431B68FB60FB681437BD4677
:103CE0005DF8047B704700BF80B483B000AF03462B
:103CF000FB710B46BB7113467B710949FB797A79DD
:103D000051331B010B445A600549FB79BA79513391
:103D10001B010B441A600C37BD465DF8047B7047ED
:103D20000070004080B483B000AF0346FB710B46C7
:103D3000BB8013467B800948FB79B7F9042091B218
:103D4000B7F9022012040A431B01034403F5A363DD
:103D50005A600C37BD465DF8047B70470070004028
:103D600080B483B000AF7860044A7B68C2F8043343
:103D70000C37BD465DF8047B704700BF0070004003
:103D800080B483B000AF7860044A7B68C2F808331F
:103D90000C37BD465DF8047B704700BF00700040E3
:103DA00080B485B000AF03460A46FB711346BB7171
:103DB000BB79002B01D1802300E04023FB60FB791D
:103DC0005B00FA6802FA03F318461437BD465DF843
:103DD000047B704780B400AF034B0122C3F8002579
:103DE000BD465DF8047B70470070004080B400AFB2
:103DF000034B0022C3F80025BD465DF8047B7047E5
:103E00000070004080B483B000AF78603960064A2B
:103E10007B68C2F82C36044A3B68C2F830360C374F
:103E2000BD465DF8047B70470070004080B483B0ED
:103E300000AF0346FB71044AFB79C2F8F0350C373A
:103E4000BD465DF8047B70470070004080B483B0CD
:103E500000AF0346FB71044AFB79C2F8F4350C3716
:103E6000BD465DF8047B70470070004080B582B0AD
:103E700000AF0346FB7197F907301846FFF7D8FEED
:103E80000837BD4680BD00BF80B58CB000AF4FF491
:103E90008270FFF7F9FE0346002B45D04FF4827085
:103EA000FFF708FF874B93F82E3083F00103DBB256
:103EB000002B04D1834B93F82F30002B34D00023F8
:103EC0003B76804B5B68FB617E4B1B899BB23B84DE
:103ED0007C4BDB68002B03D17A4B00221A7419E06B
:103EE000784B1A8B774B5A83764BDB68754A536055
:103EF000744B1A8B734B1A81724B0022DA60714B30
:103F000093F82E3083F00103DBB2002B02D00020A7
:103F1000FFF7A8FE6B4B1B6807F118021046984785
:103F2000684B002283F82F20664B93F82E30002B2D
:103F300062D04FF48070FFF7A7FE0346002B5BD0E2
:103F40004FF48070FFF7B6FE5E4B5A8B5D4B93F8D3
:103F50002D309BB29A421CD95A4B5A8B594B93F82D
:103F60002D309BB2D31A9AB2564B5A83554B5A688E
:103F7000544B1B899BB21946524B5B8BCB1A5B008F
:103F80001A44504B93F82D3010461946FFF73AFF6C
:103F90002BE04C4B5A8B4B4B93F82D309BB29A42F3
:103FA00014D1484BDB68002B10D0464B012283F81C
:103FB0002F20444B00225A83424BDA68414B93F83E
:103FC0002D3010461946FFF71DFF0EE03D4B5A8B72
:103FD0003C4B93F82D309BB29A4206D1394B0122CB
:103FE00083F82F20374B00225A834FF48270FFF75B
:103FF00061FE0420FFF736FE4FF48870FFF744FEA1
:104000000346002B0ED04FF48870FFF753FE2D4B64
:1040100000221A7402233B732A4B1B6807F10C021F
:10402000104698474FF48A70FFF72EFE0346002B88
:1040300007D04FF48A70FFF73DFE224B00221A741E
:104040003CE0204B5B69FB6235E0FB6AB3FA83F32B
:10405000BB62BB6A4FF0004222FA03F3DB43FA6A09
:104060001340FB62BB6A9BB246339BB29B00FB844E
:10407000FB8C1846FFF708FE0346002B1BD0FB8C79
:104080001846FFF717FE01233B70FB8CA3F58C73DA
:10409000DB08DBB23B71FB8CA3F58C7303F00403EC
:1040A000002B0CBF01230023DBB27B71054B1B6887
:1040B0003A4610469847FB6A002BC6D13037BD46BA
:1040C00080BD00BFF446002080B584B000AF7860AA
:1040D00039602F4B93F82C30002B03D00823FB6062
:1040E000FB6851E03B68002B03D10723FB60FB68B2
:1040F0004AE07B68002B01D1264B7B60244A3B6859
:1041000013607B681B781846FFF790FE7B685B782E
:104110001846FFF79BFE7B68DA781D4B83F82E204C
:104120001B4B012283F82C20194B00221A74184BC8
:10413000002283F82D20164B00225A61144B0022D6
:1041400083F82F206FF00040FFF71AFE4FF48270C3
:10415000FFF7B0FD4FF48070FFF7ACFD7B689B78F4
:1041600007201946FDF728FE0220FFF7F9FD084B4E
:1041700093F82E30002B02D00120FFF7F1FDFFF75E
:1041800029FE0023FB60FB6818461037BD4680BD42
:10419000F44600203C53050080B582B000AF6FF0BC
:1041A0000040FFF7EDFD0720FFF760FE0820FFF756
:1041B00059FD42F210737B6002E07B68013B7B603B
:1041C0004FF48A70FFF760FD034683F00103DBB212
:1041D000002B02D07B68002BEFD1FFF707FE104BBE
:1041E00000221A7400233B600FE00D4A3B680C3339
:1041F0005B0013441B79002B04D03B68DBB21846EC
:1042000000F05AF83B6801333B603B68072BECD960
:10421000034B002283F82C200837BD4680BD00BF29
:10422000F446002080B584B000AF03463960FB71CE
:10423000204B1B7CDBB2002B03D01123FB60FB68FF
:1042400033E0FB791B4A0C335B0013441B79002BD2
:1042500007D1184B93F82D300133DAB2154B83F8A0
:104260002D20FB793A68D179124A0C335B00134454
:104270000A461A71FB793A68117A0E4A0C335B00D0
:1042800013440A465A71FB7918463968FEF716FC42
:104290003B68DA793B681B7AF979084611461A4679
:1042A000FFF722FD0023FB60FB6818461037BD4670
:1042B00080BD00BFF446002080B584B000AF034647
:1042C000FB711D4B1B7CDBB2002B03D01123FB6069
:1042D000FB682DE0FB79184A0C335B0013441B7913
:1042E000002B07D0144B93F82D30013BDAB2124B60
:1042F00083F82D20FB79104A0C335B001344002215
:104300001A71FB790C4A0C335B00134400225A717A
:10431000FB79184600210022FFF7E6FCFB791846DE
:10432000064940F2FF7200F0CFF80023FB60FB6803
:1043300018461037BD4680BDF446002000F8FFFF48
:1043400080B584B000AF78600B467B801220FFF709
:1043500017FD3B4B1B7CDBB2022B06D11220FFF773
:10436000FFFC1123FB60FB6866E0354B1B7CDBB276
:10437000012B33D1324BDB68002B06D00220FFF734
:10438000EFFC1123FB60FB6856E02D4A7B68D3608D
:104390002B4A7B8813832A4B93F82E3083F001033A
:1043A000DBB2002B13D000BF4FF48070FFF76CFC22
:1043B000034683F00103DBB2002BF5D14FF480708C
:1043C000FFF778FC7B8878681946FFF71BFD022011
:1043D000FFF7C6FC0023FB60FB682DE00220FFF71F
:1043E000BFFC174B01221A74154A7B685360144AAC
:1043F0007B881381124B0022DA60114B93F82E3028
:10440000002B0AD00E4A7B8853830D4B93F82D3036
:1044100078681946FFF7F6FC0BE07B887868194648
:10442000FFF7F0FC4FF48070FFF744FC0020FFF72B
:1044300019FC0023FB60FB6818461037BD4680BDA1
:10444000F446002080B582B000AF00237B600C4BA7
:104450001B7CDBB2012B02D008237B600BE0084BF6
:1044600093F82E30002B03D00020FFF7FBFB02E077
:104470000420FFF7F7FB7B6818460837BD4680BD70
:10448000F446002080B582B000AF0E4B1B7CDBB23F
:10449000002B03D011237B607B680FE0094B0222C5
:1044A0001A744FF48870FFF705FC1020FFF758FCD2
:1044B0000C20FFF7D7FB00237B607B68184608378A
:1044C000BD4680BDF446002080B584B000AF0346F1
:1044D000FB710B46BB8013467B80F979B7F904204A
:1044E000B7F90230084611461A46FFF71BFCFB7964
:1044F00018460021FFF754FCF860B7F9043013F5B3
:10450000006F10D1264B5A69FB795B0001334FF0E5
:10451000004121FA03F3DB431340214A5361F86859
:10452000FFF72EFC0EE01E4B5A69FB795B0001334E
:104530004FF0004121FA03F31343194A5361F8681D
:10454000FFF70EFCFB7918460121FFF729FCF86004
:10455000B7F9023040F2FF7293420FD1104B5A6903
:10456000FB795B004FF0004121FA03F3DB4313407A
:104570000B4A5361F868FFF703FC0DE0084B5A69DA
:10458000FB795B004FF0004121FA03F31343044A27
:104590005361F868FFF7E4FB1037BD4680BD00BFEC
:1045A000F446002080B483B000AF0346FB71094994
:1045B00097F907305B09FA7902F01F02012000FA2F
:1045C00002F2203341F823200C37BD465DF8047B0E
:1045D000704700BF00E100E080B483B000AF7860B6
:1045E0000B46FB70FB787A68134401221A600C3783
:1045F000BD465DF8047B704780B485B000AF78603D
:104600000B467B807B887A68134400221A607B8883
:104610007A6813441B68FB60FB681437BD465DF87D
:10462000047B704780B483B000AF78600B467B801A
:104630007B887A6813441B68002B14BF0123002376
:10464000DBB218460C37BD465DF8047B704700BFEF
:1046500080B483B000AF786039607B68D3F8002203
:104660003B68DB431A407B68C3F800220C37BD4629
:104670005DF8047B704700BF80B483B000AF786002
:1046800039607B683A68C3F804230C37BD465DF88F
:10469000047B704780B483B000AF786039607B687A
:1046A0003A68C3F808230C37BD465DF8047B7047B1
:1046B00080B483B000AF78607B680522C3F8002522
:1046C0000C37BD465DF8047B704700BF80B483B0F3
:1046D00000AF78607B680022C3F800250C37BD4628
:1046E0005DF8047B704700BF80B485B000AFF86010
:1046F000B9607A60FB68BA68C3F80825FB687A6815
:10470000C3F80C251437BD465DF8047B704700BF25
:1047100080B483B000AF786039607B683A68C3F8D2
:1047200024250C37BD465DF8047B704780B485B006
:1047300000AF78607B68D3F8C434FB607B68FA68AC
:10474000C3F8C424FB6818461437BD465DF8047BE3
:10475000704700BF80B483B000AF78600B46FB7039
:10476000FA787B68C3F888250C37BD465DF8047B72
:10477000704700BF80B483B000AF78607B68D3F827
:104780001835DBB218460C37BD465DF8047B704720
:1047900080B483B000AF78600B46FB70FA787B681A
:1047A000C3F81C250C37BD465DF8047B704700BF7D
:1047B00080B483B000AF786039607B683A68C3F832
:1047C00000220C37BD465DF8047B704780B582B08F
:1047D00000AF0346FB7197F907301846FFF7E2FE7A
:1047E0000837BD4680BD00BF80B485B000AF78609B
:1047F0007B681B0BFB73FB7B5BB218461437BD4613
:104800005DF8047B704700BF80B483B000AF786070
:104810004FF0A04318460C37BD465DF8047B704747
:1048200080B584B000AF78603B1D1846FFF7ECFF01
:10483000F8607B681A4601239340F868194600F037
:104840003BF81037BD4680BD80B584B000AF7860BE
:104850003B1D1846FFF7D8FFF8607B681A46012316
:104860009340F868194600F035F81037BD4680BD12
:1048700080B584B000AF78603B1D1846FFF7C4FFD9
:10488000F860F86800F00AF802467B6822FA03F341
:1048900003F0010318461037BD4680BD80B483B0D5
:1048A00000AF78607B68D3F8103518460C37BD46EA
:1048B0005DF8047B704700BF80B483B000AF7860C0
:1048C00039607B683A68C3F808250C37BD465DF847
:1048D000047B704780B483B000AF786039607B6838
:1048E0003A68C3F80C250C37BD465DF8047B704769
:1048F00080B485B000AF7860254BFB607B68002BEF
:1049000040D0244B1A68F9687B6800BF00BF00BF25
:1049100000BF00BF00BF00BF00BF8A422FD000BF52
:1049200000BF00BF00BF00BF00BF00BF00BF00BF8F
:1049300000BF00BF00BF00BF00BF00BF00BF00BF7F
:1049400000BF00BF00BF00BF00BF00BF00BF00BF6F
:1049500000BF00BF00BF00BF00BF00BF00BF00BF5F
:1049600000BF00BF00BF00BF00BF00BF00BF00BF4F
:1049700000BF00BF00BF00BF00BF00BF00BF013BC2
:10498000C3D17B601437BD465DF8047B704700BF20
:104990000024F400D042002080B485B000AF7860DD
:1049A0000323FB607B6803F00103002B02D04FF46C
:1049B0000243FB607B6803F00203002B02D048F245
:1049C0000123FB607B6803F00403002B02D048F254
:1049D0000223FB60FB6818461437BD465DF8047B74
:1049E000704700BF80B584B000AF78604FF0A04240
:1049F0007B681B6803F5E07340F20C6142F82310FA
:104A00004FF0A0427B685B6803F5E07340F20C61F5
:104A100042F823107B681B681846FFF701FF7B688C
:104A20005B681846FFF7FCFE4FF0A0427B681B68EE
:104A300003F5E07340F20D6142F823104FF0A042FD
:104A40007B685B6803F5E07340F20D6142F8231068
:104A50000420FFF74DFF0023FB601FE07B685B68CD
:104A60001846FFF705FF0346002B04D0FB68002B18
:104A700000D123E015E07B681B681846FFF7E4FED1
:104A80000420FFF735FF7B681B681846FFF7C8FE58
:104A90000420FFF72DFFFB680133FB60FB68082B48
:104AA000DCDD7B685B681846FFF7CEFE0420FFF76D
:104AB0001FFF7B685B681846FFF7B2FE1037BD46E4
:104AC00080BD00BF80B588B000AFF860B9607A6083
